:020000040000FA
:060000000A128A11122809
:10000800FE00030E83120313A6000408A7000A08C3
:10001800A8007F08A9000A128A1587280A128A11DF
:1000280015288317D030FD001F30FE007A30FF00FE
:10003800903084000A168A150C240A128A11831338
:10004800EF30FD001C30FE001B30FF00DC30840068
:100058000A168A150C240A128A110A168A15DD2234
:100068000A128A11E4000A168A15DE220A128A1177
:10007800E5000A128A11FF270A128A11FB0083176A
:10008800D0308400DA300A168A15FC220A128A1146
:100098008313A0308400C5300A168A15FC220A1280
:1000A8008A115C30840064300A168A15FC220A1210
:1000B8008A11F601F701F801F901FA0183010A161C
:1000C8008A15282B6628FF0000308A007F088207DF
:1000D8006C280A168A159F2B0A168A158B2C8312F0
:1000E80003133B088039FF007F08C5003B08C000A8
:1000F8004007FF007F08CB00BA1F83288428852883
:100108004B144B08031989288A2899284B0A031D80
:100118008E288F2897280030BB000030BA000030A6
:10012800B9000030B800BA17A1280030BB00003071
:10013800BA000030B9000030B8003F088039FF002D
:100148007F08C5063F08C0004007FF007F08C600BB
:10015800BE1FAF28B028B128461446080319B52891
:10016800B628C528460A031DBA28BB28C32800306C
:10017800BF000030BE000030BD000030BC00BE171C
:10018800CD280030BF000030BE000030BD00003078
:10019800BC0046080319D128D228D7284B08031DCC
:1001A800D628D728E0280030BB000030BA0000303D
:1001B800B9000030B800D32B3808FF007F08AA0028
:1001C8003E080A168A153F250A128A11831203135C
:1001D8002B08D1002A08D0005008C000C101C20174
:1001E800C3014308CA004208C9004108C8004008C2
:1001F800C7005108C000C101C201C3014308CF00B4
:100208004208CE004108CD004008CC003908FF0064
:100218007F08AA003D080A168A153F250A128A1186
:10022800831203132B08D1002A08D0005008C000FD
:10023800C101C201C3014008C707410803110318DF
:10024800013E03192829C807420803110318013E73
:1002580003192F29C907430803110318013E03197D
:100268003629CA075108C000C101C201C3014008AC
:10027800CC07410803110318013E03194429CD078F
:10028800420803110318013E03194B29CE074308FE
:1002980003110318013E03195229CF073A08FF003A
:1002A8007F08AA003C080A168A153F250A128A11F7
:1002B800831203132B08D1002A08D0005008C0006D
:1002C800C101C201C3014008C7074108031103184F
:1002D800013E03197029C807420803110318013E9B
:1002E80003197729C907430803110318013E0319A5
:1002F8007E29CA075108C000C101C201C3014008D4
:10030800CC07410803110318013E03198C29CD07B6
:10031800420803110318013E03199329CE07430825
:1003280003110318013E03199A29CF070830C000AA
:100338000310C70DC80DC90DCA0DC00B9C2939087B
:10034800FF007F08AA003C080A168A153F250A12F2
:100358008A11831203132B08D1002A08D0005008F1
:10036800C0005108C100C201C3014008C7074108C5
:1003780003110318013E0319C229C80742080311D3
:100388000318013E0319C929C907430803110318B3
:10039800013E0319D029CA073808FF007F08AA00C0
:1003A8003D080A168A153F250A128A11831203137B
:1003B8002B08D1002A08D0005008C0005108C100FD
:1003C800C201C3014008C707410803110318013ED1
:1003D8000319EF29C807420803110318013E03193E
:1003E800F629C907430803110318013E0319FD291B
:1003F800CA070830C0000310C70DC80DC90DCA0DC3
:10040800C00BFF293808FF007F08AA003C080A161D
:100418008A153F250A128A11831203132B08D1006B
:100428002A08D0005008C0005108C100C201C30109
:100438004008C707410803110318013E0319252A7C
:10044800C807420803110318013E03192C2AC907DB
:10045800430803110318013E0319332ACA07390850
:10046800FF007F08AA003E080A168A153F250A12CF
:100478008A11831203132B08D1002A08D0005008D0
:10048800C0005108C100C201C3014008CC0741089F
:1004980003110318013E0319522ACD07420803111C
:1004A8000318013E0319592ACE07430803110318FC
:1004B800013E0319602ACF073A08FF007F08AA0007
:1004C8003D080A168A153F250A128A11831203135A
:1004D8002B08D1002A08D0005008C0005108C100DC
:1004E800C201C3014008CC07410803110318013EAB
:1004F80003197F2ACD07420803110318013E031987
:10050800862ACE07430803110318013E03198D2AD2
:10051800CF073A08FF007F08AA003E080A168A1586
:100528003F250A128A11831203132B08D1002A08C7
:10053800D0005008C0005108C100C201C3010830F2
:100548000310C00DC10DC20DC30DFF3E031DA42A2B
:100558004008CC07410803110318013E0319B52AC6
:10056800CD07420803110318013E0319BC2ACE0720
:10057800430803110318013E0319C32ACF0747088C
:10058800C0004808C1004908C2004A08C300183022
:100598000310C30CC20CC10CC00CFF3E031DCC2AB7
:1005A8004008CC07410803110318013E0319DD2A4E
:1005B800CD07420803110318013E0319E42ACE07A8
:1005C800430803110318013E0319EB2ACF0708302B
:1005D800C0000310C70DC80DC90DCA0DC00BED2A08
:1005E8004B084607C000C101C10D4008823ED0003B
:1005F80041080318013EFF3ED1001F2B0130C00007
:100608000310CC0DCD0DCE0DCF0DC00B042BCA1F82
:100618000E2B0F2B102B4C140130C0000310C70DEC
:10062800C80DC90DCA0DC00B122BFF30D007031817
:10063800D10AFF30D107CE1F222B232B022BC60154
:10064800CA1F272B282B442BFF304705C000FF303B
:100658004805C100FF304905C2007F304A05C30084
:10066800430842044104400403193B2B3C2B3F2B15
:10067800C601C60A442B4C1C422B432B442B3C2B53
:1006880046080319482B492B7A2B0130CC07003038
:1006980003180130CD07003003180130CE070030B1
:1006A80003180130CF074F1C5A2B5B2B7A2B4C08B1
:1006B800C0004D08C1004E08C2004F08C3000130F9
:1006C800C400430DC30CC20CC10CC00CC40B652B79
:1006D8004308CF004208CE004108CD004008CC00B6
:1006E8000130D0070318D10A0030D1075108803AE9
:1006F800FF0080307F02031D832BFF305002031C54
:10070800862B872B922B7F3083120313CF008030E8
:10071800CE000030CD000030CC00C72B831203136D
:100728005108803AFF0080307F02031D9D2B013065
:1007380050020318A02BA12BAD2B003083120313FA
:10074800CF000030CE000030CD000030CC00C50115
:10075800C72B831203135008FF007F08CB00FF301C
:10076800CC05FF30CD057F30CE050030CF054B1CC2
:10077800BE2BBF2BC02BCE174B08C0000310400C5C
:10078800FF007F08CF004508FF007F08CF044F080F
:10079800BB004E08BA004D08B9004C08B800080064
:1007A8008312031359088039FF007F088316031347
:1007B800CE0083120313590883160313C500450797
:1007C800FF007F08D50083120313D81FEC2BED2BF5
:1007D800F02B8316031355148316031355080319B6
:1007E800F62BF72B0A2C550A031DFB2BFC2B062C8A
:1007F800003083120313D9000030D8000030D7002E
:100808000030D6008312D817D901142C0030831277
:100818000313D9000030D8000030D7000030D600CC
:1008280055088039FF007F0883160313CE0683120C
:100838000313550883160313C5004507FF007F08F7
:10084800D60083120313D41F2A2C2B2C2E2C83168C
:10085800031356148316031356080319342C352C26
:10086800482C560A031D392C3A2C442C003083128C
:100878000313D5000030D4000030D3000030D2007C
:100888008312D417D501522C003083120313D500DC
:100898000030D4000030D3000030D2005508540492
:1008A80053045204031D592C5A2C772C0030D900BC
:1008B8000030D8000030D7000030D6008030D8048F
:1008C8007F30D904831603134E08FF007F08831274
:1008D8000313D9045908D5005808D4005708D30081
:1008E8005608D200682E831603135508031D7D2C65
:1008F8007E2C892C003083120313D5000030D400DD
:100908000030D3000030D200682E5508C500C6015B
:100918004608C80056084502C700031CC803470814
:100928007F3ECF0048080318013E003ED0008312E6
:100938000313590883160313CD00831203135808B1
:1009480083160313CC00831203135708831603136B
:10095800CB0083120313560883160313CA00003012
:1009680083120313D9000030D8000030D7000030BC
:10097800D600003083160313D4000030D3000030B3
:10098800D2000030D100D601452D56080319CD2CD0
:10099800CE2CF62C0130C5000310CA0DCB0DCC0DA2
:1009A800CD0DC50BD02C0130C500031083120313E5
:1009B800D60DD70DD80DD90D83160313C50BD92C19
:1009C800D41FE72CE82CEB2C8312031356140130A8
:1009D80083160313C5000310D10DD20DD30DD40D0A
:1009E800C50BEF2C831203135508831603134D020E
:1009F800031D142D831203135408831603134C028A
:100A0800031D142D831203135308831603134B027B
:100A1800031D142D831203135208831603134A026D
:100A2800031C172D182D412D541783120313520838
:100A380083160313CA02831203135308031C530FAC
:100A4800262D292D83160313CB0283120313540872
:100A5800031C540F302D332D83160313CC0283123D
:100A680003135508031C550F3A2D3D2D8316031308
:100A7800CD0283120313831603130130FF007F088E
:100A8800D6071A305602031C4A2D4B2DC92C4D0887
:100A98004C044B044A040319522D532D7C2D511438
:100AA8007C2D013083160313C50003108312031332
:100AB800D60DD70DD80DD90D83160313C50B592D97
:100AC800D41F672D682D6B2D831203135614013024
:100AD80083160313C5000310D10DD20DD30DD40D09
:100AE800C50B6F2DFF30CF070318D00AFF30D00792
:100AF80083120313D81F812D822D552D83160313BE
:100B0800D601D41F882D892DA92DFF305105C50088
:100B1800FF305205C600FF305305C7007F3054052B
:100B2800C800480847044604450403199C2D9D2D18
:100B3800A22D83160313D601D60AA92D83120313F7
:100B4800561CA72DA82DA92D9D2D831603135608D5
:100B58000319AF2DB02D012E013083120313D607D0
:100B6800003003180130D707003003180130D807C8
:100B7800003003180130D907591CC32DC42D012E8C
:100B8800560883160313C5008312031357088316E8
:100B98000313C60083120313580883160313C700F0
:100BA80083120313590883160313C8000130C900C0
:100BB800480DC80CC70CC60CC50CC90BDC2D480861
:100BC80083120313D90083160313470883120313F0
:100BD800D80083160313460883120313D70083161D
:100BE8000313450883120313D60001308316031339
:100BF800CF070318D00A0030D00783160313500814
:100C0800803AFF0080307F02031D0C2EFF304F0218
:100C1800031C0F2E102E202EFF3083160313CF0037
:100C28000030D000003083120313D9000030D80000
:100C38000030D7000030D600831603135008803ADE
:100C4800FF0080307F02031D2B2E01304F02031856
:100C58002E2E2F2E402E83160313CF01D0010030E5
:100C680083120313D9000030D8000030D7000030B9
:100C7800D60083160313CE01831603134F08FF0013
:100C88007F08D500551C492E4A2E4E2E8312031379
:100C9800D817542E7F30FF007F0883120313D8051E
:100CA800831603135508C5000310450CFF007F0881
:100CB80083120313D900831603134E08FF007F081D
:100CC80083120313D9046E2C08001430FF007F0828
:100CD80083120313DD0714305D060319742E752E75
:100CE800762EFE2FDD01B5010630FF007F08AA0031
:100CF80035080A168A1544240A128A11BB3E840054
:100D080083170008031D892E8A2EF22F0630FF0054
:100D18007F0883120313AA0035080A168A1544248B
:100D28000A128A11BD3E8400831700088312031338
:100D3800B3000630FF007F08AA0035080A168A1596
:100D480044240A128A11BC3E840083120313330818
:100D5800831780000630FF007F08AA0035080A16AE
:100D68008A1544240A128A11B93E840083170008A0
:100D7800FF007F0883120313AE000630FF007F08D0
:100D8800AA0035080A168A1544240A128A11BD3E9B
:100D9800FF007F0883120313AF000630FF007F08AF
:100DA800AA0035080A168A1544240A128A11B83E80
:100DB8008400831700080A128A1504200A128A116F
:100DC8000630FF007F0883120313AA0035080A16AD
:100DD8008A1544240A128A11BD3E8400831700082C
:100DE80083120313B3000630FF007F08AA003508FA
:100DF8000A168A1544240A128A11BC3E84008317F5
:100E08000008831203133306031D0B2F0C2FF22F38
:100E1800CD2F0630FF007F08AA0035080A168A156C
:100E280044240A128A11BD3E840083170008031D5A
:100E38001E2F1F2FF22F0630FF007F088312031387
:100E4800AA0035080A168A1544240A128A11BA3EDD
:100E580084001130FF007F0883178000F22F0630CE
:100E6800FF007F08AA0035080A168A1544240A12CA
:100E78008A11BD3E840083170008031D442F452FA7
:100E8800592F0630FF007F0883120313AA00350884
:100E98000A168A1544240A128A11BA3E84001130AF
:100EA800FF007F0883178000F22F0630FF007F08BD
:100EB80083120313AA0035080A168A1544240A1255
:100EC8008A11BA3E84001030FF007F088317800023
:100ED800F22F0630FF007F08AA0035080A168A1587
:100EE80044240A128A11BD3E840083170008031D9A
:100EF8007E2F7F2F932F0630FF007F088312031366
:100F0800AA0035080A168A1544240A128A11BA3E1C
:100F180084001230FF007F0883178000F22F06300C
:100F2800FF007F0883120313AA0035080A168A15E2
:100F380044240A128A11BA3E84001330FF007F0845
:100F480083178000F22F0630FF007F08AA003508BB
:100F58000A168A1544240A128A11BD3E8400831792
:100F6800000A031DB82FB92FF22F0630FF007F08A3
:100F780083120313AA0035080A168A1544240A1294
:100F88008A11BA3E84001330FF007F08831780005F
:100F9800F22F0630FF007F08AA0035080A168A15C6
:100FA80044240A128A11BA3E840083170008831267
:100FB8000313B300B4013408003A0319E42FF22FE5
:100FC8003308103A03190D2F013A03196D2F033A0C
:100FD8000319A72F013A0319332FF22F0130FF000D
:100FE8007F0883120313B50703303502031CFD2F56
:080FF800FE2F782E08000B34D7
:101002008B170B17080083120313B2006D282E08EA
:10101200FF007F08AA0005082E050A168A15682512
:101022000A128A15003A0319172818282228FF30B5
:10103200FF00831203132F0884007F0883178000A8
:101042008628831203132F088400831780018628C1
:101052002E08FF007F08AA0006082E050A168A1528
:1010620068250A128A15003A0319382839282228D5
:1010720018282E08FF007F08AA0007082E050A1666
:101082008A1568250A128A15003A031949284A283E
:10109200222818282E08FF007F08AA0008082E051B
:1010A2000A168A1568250A128A15003A03195A285F
:1010B2005B28222818282E08FF007F08AA000908AA
:1010C2002E050A168A1568250A128A15003A03198E
:1010D2006B286C28222818283208B000B101310888
:1010E200003A0319752886283008003A031908289F
:1010F200013A03192928033A03193A28013A031934
:101102004B28073A03195C2886280800F501750860
:1011120083120313A00001300310A00DFF3E031D34
:101122008D280310200DAB3E840083130008FF00BE
:101132007F08F0007508A10001300310A10DFF3EE9
:10114200031D9E280310210DAB3E84000008A2005F
:101152007508A30001300310A30DFF3E031DAC2848
:101162000310230DA93E84000008A400840A00088D
:10117200A500240884008317251C83130008220578
:101182000A168A1516250A128A15013A031DCA285B
:10119200CB280A29750883120313A000013003101B
:1011A200A00DFF3E031DD0280310200DA83E840091
:1011B200831300080A128A1167200A128A15750819
:1011C20083120313A00001300310A00DFF3E031D84
:1011D200E5280310200DAB3E840083130009FF00B5
:1011E2007508A10001300310A10DFF3E031DF42874
:1011F2000310210DA93E84000008A200840A000801
:10120200A300220884008317231C83137F08800510
:1012120014290130FF007F08F50702307502031C14
:10122200132914298828831203132908FF00280888
:101232008A0027088400260E8300FE0E7E0E090017
:10124200031083160313590D5A0DFF007F088312F2
:101252000313DB005B08031D2F2930293B290030D3
:1012620083160313DA000030D9000030D8000030B2
:10127200D700C42983160313570883160317DA000D
:1012820083160313580883160317DB008316031310
:10129200590883160317DC00831603135A088316B2
:1012A2000317DD001F300310DD0CDC0CDB0CDA0C45
:1012B200FF3E031D54295A08FF007F0883120313BF
:1012C200DA0083160313D917FF30D705FF30D8058C
:1012D200FF30D9050030DA05963083120313DB02A2
:1012E200DB1F7429752993295B08803A973E0318FE
:1012F2007B297C297D2930290130031083160313B1
:10130200DA0CD90CD80CD70CFF3E031D7E29013014
:10131200FF007F0883120313DB07031D9129922923
:101322007D29B22920305B02031C98299929AD2915
:101332003029013083160317DA00031083160313D2
:10134200D70DD80DD90DDA0D83160317DA0B9E29A6
:10135200013083120313DB025B08031DB129B2299A
:101362009A295A080319B629B729C42983160313DF
:10137200D709D809D909DA09D70A0319D80A0319EA
:10138200D90A0319DA0A08000B30FF007F08FB00B4
:101392001030FF007F0883120313E50002300A16A3
:1013A2008A111D240A128A1501300A168A111D2477
:1013B2000A128A15831603136B0883120313C100E2
:1013C200831603136C0883120313C20083160313DC
:1013D2006D0883120313C30041300A168A11672273
:1013E2000A128A1500300A168A1572240A128A1500
:1013F2000A168A15DF220A128A150A168A152E245F
:101402000A128A150A168A1543230A128A150A161F
:101412008A1551230A128A1500300A168A117A2176
:101422000A128A1545308400831603136608831353
:101432008000840A67088000840A68088000840AA1
:1014420069088000840A6A08800045300A128A15F9
:1014520037260A128A153C30FF007F08FA000A1666
:101462008A15C1230A128A154430FF007F088312AD
:101472000313AB0000300A168A1114220A128A15CD
:10148200AA308312031344060319482A492A602A00
:10149200AA30FF007F08AB0000300A168A15CB2461
:1014A2000A128A153C30FF007F0883120313AB0037
:1014B20001300A168A15CB240A128A156A2A7A3052
:1014C200FF007F08AB0001300A168A1114220A12AB
:1014D2008A150A128A1501200A128A1514300A1670
:1014E2008A15F4220A128A15080083120313B20025
:1014F200320803197D2A7E2A922AAD1F812A822A66
:10150200922A2A09B4002B09B5002C09B6002D092C
:10151200B700B40A0319B50A0319B60A0319B70AC0
:101522009A2A2D08B7002C08B6002B08B5002A0805
:10153200B4002D082C042B042A04031DA12AA22A7C
:10154200AB2A0030AD000030AC000030AB00003000
:10155200AA00312B9630FF007F08B300BD2A01306C
:10156200FF007F08B30701300310B70CB60CB50CAF
:10157200B40CFF3E031DB52AFE303705031DC22AF7
:10158200C32AB02ADF2A0130FF007F08B3070130E7
:10159200B407003003180130B507003003180130DA
:1015A200B607003003180130B70701300310B70C3B
:1015B200B60CB50CB40CFF3E031DD72AFF3037051D
:1015C200031DE42AE52AC42AF12A0130B3020130BC
:1015D200AE000310B40DB50DB60DB70DAE0BEA2A71
:1015E200B61BF42AF52AFB2A023033020318FA2A20
:1015F200FB2AE62A3318FE2AFF2A072BFF30B405FE
:10160200FF30B5057F30B605FF30B7050310B30CC8
:101612003308AE00AF01B001B10118300310AE0DB6
:10162200AF0DB00DB10DFF3E031D0F2B2E08B404FC
:101632002F08B5043008B6043108B704320803197C
:10164200232B242B292BAD1F272B282B292BB71714
:101652003708AD003608AC003508AB003408AA00E4
:1016620008001430FF007F0883160313C3071430E9
:10167200430603193D2B3E2B3F2B292CC301831616
:101682000317E101E201E130FF007F088312031337
:10169200AA0002300A168A112F210A128A15E23094
:1016A200FF007F0883120313AA0001300A168A1171
:1016B2002F210A128A1579300A168A155B260A1218
:1016C2008A15E0300A168A11E3240A128A150F2CB1
:1016D2000A168A155F230A128A1500300A168A151D
:1016E200E4230A128A1500300A168A15F6230A1212
:1016F2008A150230FF007F0883160313EE00F801FB
:1017020001300A168A1153200A128A1514300A1659
:101712008A15F4220A128A15242C0230FF007F084F
:1017220083120313AA008316031760080A168A118C
:1017320000200A128A150A168A119A200A128A159C
:1017420011308316031762060319A82BA92BAF2B9E
:1017520011306106031DAE2BAF2B242C0C30FF0081
:101762007F08FB00242C0A168A119A200A128A1575
:10177200143083160313BE070318BF0A0030BF07D5
:101782001130831603176206031DC82BC92BD62BF3
:1017920024307A02031CCE2BCF2BD12B0530FA0238
:1017A20083160313BE01BF01E72B11306106031D2F
:1017B200DB2BDC2BE72B4B307A020318E12BE22BDD
:1017C200D12B0530FF007F08FA07D12B83120313B8
:1017D200AA01AA0A7A080A168A1100200A128A1590
:1017E2001330831603133F02883003193E02031C91
:1017F200FB2BFC2B242C0A30FF007F08FB00BE01D0
:10180200BF017A08FF007F0883120313AB00013087
:101812000A168A15CB240A128A15242C7B088316F1
:101822000317DE00DF015F08003A0319192C242C8C
:101832005E080A3A03198E2B013A0319692B073AFB
:101842000319B42B242C0A168A15C9260A128A15E2
:1018520008001430FF007F0883120313DE072830CC
:101862005E060319352C362C372C2F2DDE011C2D4C
:10187200AA01AA0A00300A168A1535230A128A1505
:1018820083120313AA01AA0A01300A168A15352304
:101892000A128A150A3083120313AA000030AB0021
:1018A2006008B600B7013608AC003708AD000A166A
:1018B2008A11C2230A128A15831203132A08FF000F
:1018C2007F08B20000300A168A1592260A128A157B
:1018D2000A3083120313AA000030AB006008B6007E
:1018E200B7013608AC003708AD000A168A11812606
:1018F2000A128A15831203132A08FF007F08B20016
:1019020001300A168A1592260A128A1583160313C3
:10191200C001C1012F2D283083160313C0070318FD
:10192200C10A0030C10707304102D030031940021A
:10193200031C9C2C9D2C9E2C872C03304102E930E9
:1019420003194002031CA62CA72CBA2C83120313E2
:10195200AA0100300A168A1535230A128A15831243
:101962000313AA0101300A168A1535230A128A15B1
:101972002F2D83120313AA01AA0A00300A168A1510
:1019820035230A128A1583120313AA01AA0A013007
:101992000A168A1535230A128A150A30831203138E
:1019A200AA000030AB006008B600B7013608AC00F0
:1019B2003708AD000A168A11C2230A128A15831249
:1019C20003132A08FF007F08B20000300A168A15A6
:1019D20092260A128A150A3083120313AA000030D3
:1019E200AB006008B600B7013608AC003708AD009E
:1019F2000A168A1181260A128A15831203132A08EB
:101A0200FF007F08B20001300A168A1592260A12D8
:101A12008A152F2DAA0100300A168A1535230A12BB
:101A22008A1583120313AA0101300A168A15352377
:101A32000A128A15872C5F08B600B7013708003AE8
:101A42000319242D2F2D3608003A03190B2D013AC4
:101A520003198C2C033A0319392C2F2D080014304A
:101A6200FF007F08F607143076060319392D3A2D48
:101A72003B2D362EF6012030FF007F088312031320
:101A8200AA00AB0100300A168A1118260A128A151A
:101A92001030FF007F0883120313AA00AB0100304D
:101AA2000A168A1118260A128A150830FF007F08C2
:101AB20083120313AA00AB0100300A168A111826FA
:101AC2000A128A150430FF007F0883120313AA004A
:101AD200AB0100300A168A1118260A128A157708F5
:101AE20083120313AF002F07A13E84008313000368
:101AF200031D7C2D7D2D202E0A2E7708AF002F0787
:101B0200A03E84000008DC3E84000008FF007F083D
:101B1200AA0003300A168A1593250A128A15203064
:101B2200FF007F0883120313AA00FF30FF007F0823
:101B3200AB0000300A168A1118260A128A152B2EBB
:101B42007708AF002F07A03E84000008DC3E840027
:101B52000008FF007F08AA0003300A168A159325A1
:101B62000A128A151030FF007F0883120313AA009D
:101B7200FF30FF007F08AB0000300A168A111826DA
:101B82000A128A152B2E7708AF002F07A03E840079
:101B92000008DC3E84000008FF007F08AA00033032
:101BA2000A168A1593250A128A150830FF007F0843
:101BB20083120313AA00FF30FF007F08AB0000303E
:101BC2000A168A1118260A128A152B2E7708AF00D8
:101BD2002F07A03E84000008DC3E84000008FF00BE
:101BE2007F08AA0003300A168A1593250A128A155D
:101BF2000430FF007F0883120313AA00FF30FF00A6
:101C02007F08AB0000300A168A1118260A128A15BC
:101C12002B2E7708AF00B0013008003A0319122EBC
:101C22002B2E2F08003A03197E2D013A0319A12DFC
:101C3200033A0319C42D013A0319E72D2B2EFF3065
:101C4200FF007F08AA00AB0103300A168A1118268A
:101C52000A128A157703031D2F2E302E322EF7011A
:101C6200362E0130FF007F08F707080083120313A6
:101C7200B200E92F8316031381168312031332086D
:101C8200033E84000003031D472E482E4C2E83166C
:101C920003138115CB2EF730FF007F088316031341
:101CA2008105831203133208033E84000008AE3E0E
:101CB200840083170008FF007F0883160313810442
:101CC200CB2E831603138116EF30FF007F088105A8
:101CD200831203133208033E84000003031D722E95
:101CE200732E742E482EF730FF007F0883160313DD
:101CF2008105831203133208033E84000008AE3EBE
:101D0200840083170008FF007F08831603138104F1
:101D1200CB2E831603138116011683120313320886
:101D2200033E84000003031D972E982E992E482E01
:101D3200F730FF007F088316031381058312031314
:101D42003208033E84000008AE3E84008317000878
:101D5200FF007F08831603138104CB2E320A84000E
:101D62000008B000B1013108003A0319B92ECB2E98
:101D72003008003A03193B2E013A0319622E033A46
:101D820003198A2ECB2E8B16E02EDF30FF007F0840
:101D92008B05E02E83123208023E84008313000872
:101DA200B000B1013108003A0319D82EE02E3008F4
:101DB200003A0319C62E013A0319C42EE02E320846
:101DC200033E84000008B0003007903E8400831771
:101DD200000883160313B000840A0008B100FF2F25
:101DE2009014302F320A84000008B000B10131088B
:101DF200003A0319FD2E302F3008003A0319302F14
:101E0200013A0319F12E033A0319F12E302F8316EA
:101E120003130C14831203133208043E84000008D7
:101E22000319142F152F432F0C30AA000030AB00DA
:101E3200AC01AC0A3208043E84000008FF007F08AF
:101E4200AD0001300A168A153F270A128A15432F60
:101E5200FE30FF007F08831603138C05432F3208E0
:101E6200023E84000008B000B1013108003A0319B3
:101E72003B2F432F3008003A0319292F013A031947
:101E8200082F432F831203133208033E8400831367
:101E92000008B0003007903E8400831700088316C4
:101EA2000313B200840A0008B3008312031332083A
:101EB200033E840083130008A43E840083170008B5
:101EC200FF007F089004FF2F320A84000008B00050
:101ED200B1013108003A03196F2F742F3008003A0C
:101EE2000319742F742F9201912F9215C42F12147B
:101EF200C42F92151214C42F9214C42F9215921447
:101F0200C42F1830FF007F0892047D2F3830FF0065
:101F12007F0892047D2F7830FF007F0892047D2F86
:101F22003208033E84000008B000B1013108003AD3
:101F320003199C2FC42F3008013A0319C42F033A06
:101F42000319762F013A0319782F073A03197A2FCA
:101F5200013A03197D2F033A03197F2F013A03191E
:101F6200822F0F3A0319872F013A03198C2FC42F9E
:101F7200831603138C14D72FFD30FF007F088316BE
:101F820003138C05D72F3208023E84000008B000EC
:101F9200B1013108003A0319CF2FD72F3008003A88
:101FA2000319BD2F013A0319B92FD72F8312320813
:101FB200033E84000008B0003007903E840083177F
:101FC200000883160313B400840A0008B500FF2F2B
:101FD2003208840083130008B000B1013108003ACE
:101FE2000319F42FFF2F3008003A0319AF2E013ADC
:101FF2000319F32E033A0319652FFF2F08008312EA
:102002000313AB002B08FF007F08E0002A08FF0043
:102012007F08DF00080083120313B0003C288030E1
:10202200FF007F08AA0001300A168A1524260A1624
:102032008A1152284030FF007F08AA0001300A1698
:102042008A1524260A168A1152282030FF007F089A
:10205200AA0001300A168A1524260A168A11522865
:102062001030FF007F08AA0001300A168A152426C4
:102072000A168A1152283008AE00AF012F08003A22
:102082000319442852282E08003A03191028013A4D
:1020920003191B28033A03192628013A0319312888
:1020A2005228080083120313AC00862883160313F8
:1020B200360303195D285E285F2899288116B60128
:1020C20099288316031337030319682869286A2895
:1020D2009928FE30FF007F088312031390058316B0
:1020E2000313B701992883160313380303197A28B7
:1020F2007B287C289928FB30FF007F08831203137A
:10210200900583160313B80199282C08AA00AB0185
:102112002B08003A03198E2899282A08003A031935
:102122005728013A03196228033A03197428992897
:1021320008007A08FB3E83120313B000FF30031835
:102142000030B1003108803A803C031DAA283008D3
:1021520079020318AD28AE28BF28FF300A168A1567
:10216200F6230A168A1100300A168A15E4230A1683
:102172008A110230FF007F08F800E3287A08053E42
:1021820083120313B000003003180130B10031088C
:10219200803AB20080303202031DD1287908300221
:1021A2000318D428D528E32800300A168A15F62306
:1021B2000A168A11FF300A168A15E4230A168A11B2
:1021C200F801F80A080083120313B10018298030BD
:1021D200FF007F08AA00AB0101300A168A111826F7
:1021E2000A168A112E294030FF007F08AA00AB018F
:1021F20001300A168A1118260A168A112E29203051
:10220200FF007F08AA00AB0101300A168A111826C6
:102212000A168A112E291030FF007F08AA00AB018E
:1022220001300A168A1118260A168A112E29310837
:10223200AF00B0013008003A031920292E292F08D7
:10224200003A0319E828013A0319F428033A03195A
:102252000029013A03190C292E29080083120313BD
:10226200AD006329831603173A08FF008312031394
:102272002A0884007F0883178000792983160317B0
:102282004008FF00831203132A0884007F08831783
:1022920080007929831603174608FF00831203136F
:1022A2002A0884007F088317800079298316031780
:1022B2004C08FF00831203132A0884007F08831747
:1022C200800079292D08AB00AC012C08003A0319D3
:1022D2006B2979292B08003A03193329013A03198A
:1022E2003F29033A03194B29013A0319572979293E
:1022F200080083120313B100AE298030FF007F086B
:10230200AA00AB0101300A168A11EA260A168A11BE
:10231200C4294030FF007F08AA00AB0101300A1631
:102322008A11EA260A168A11C4292030FF007F0882
:10233200AA00AB0101300A168A11EA260A168A118E
:10234200C4291030FF007F08AA00AB0101300A1631
:102352008A11EA260A168A11C4293108AF00B0018F
:102362003008003A0319B629C4292F08003A031984
:102372007E29013A03198A29033A03199629013A57
:102382000319A229C4290800F400002A01307102AD
:10239200003003197002031CCF29D029D129132A36
:1023A200FF30F20070087202F00071090318013E5A
:1023B200F1007008831203138100132AF009F10956
:1023C2007008831203138E0071088F00132A0130E4
:1023D2007102003003197002031CF029F129F2295D
:1023E200132AFF30F20070087202F000710903181C
:1023F200013EF1007008831203139100132A74083E
:10240200F200F3017308003A0319082A132A72082A
:10241200003A0319C729013A0319DF29033A0319BC
:10242200E829132A080083120313AC000A168A153E
:102432006F230A168A11A0300A168A15D2230A16A9
:102442008A110A168A15E5220A168A1183120313C3
:102452002C080A168A15D2230A168A110A168A1518
:10246200E5220A168A110A168A157F230A168A118C
:102472000A168A156F230A168A110A168A15E52288
:102482000A168A11A1300A168A15D2230A168A114F
:102492000A168A15E5220A168A110A168A158F2348
:1024A2000A168A11831203132B080A168A155B2453
:1024B2000A168A1102300A168A15AB240A168A11E4
:1024C2000A168A157F230A168A110800831203133B
:1024D200B200A62A831603130108732A8316031374
:1024E2000117872A83120313320A84000008B000FE
:1024F200B1013108003A03197F2A872A3008023ACB
:1025020003196F2A013A03196F2A872A83123208A4
:10251200023E8400000803198F2A902AB92A0B3040
:10252200AA000030AB000230FF007F08AC00320886
:10253200023E84000008FF007F08AD0000300A164A
:102542008A153F270A168A11B92A32088400831392
:102552000008B000B1013108003A0319B12AB92AC2
:102562003008003A03196B2A013A0319B92AB92A29
:10257200080083120313B100FA2A8030FF007F089B
:10258200AA00FF30FF007F08AB0001300A168A1153
:1025920018260A168A11102B4030FF007F08AA0065
:1025A200FF30FF007F08AB0001300A168A1118269F
:1025B2000A168A11102B2030FF007F08AA00FF3074
:1025C200FF007F08AB0001300A168A1118260A168E
:1025D2008A11102B1030FF007F08AA00FF30FF0085
:1025E2007F08AB0001300A168A1118260A168A11D2
:1025F200102B3108AF00B0013008003A0319022B4A
:10260200102B2F08003A0319BE2A013A0319CD2ACA
:10261200033A0319DC2A013A0319EB2A102B0800AA
:1026220083120313C0001830FF007F08AA00FF3096
:10263200FF007F08AB0002300A168A11EA260A164A
:102642008A118316031394019101831203139415C3
:1026520094163808BC003908BD003A08BE003B0891
:10266200BF0002300310BC0DBD0DBE0DBF0DFF3EFD
:10267200031D332B3F08AD003E08AC003D08AB0004
:102682003C08AA000030B1007A30B0001230AF002E
:102692000030AE000A168A11B0250A168A1183127A
:1026A20003132A08FF3E831603139300023083129A
:1026B20003134006031D5E2B5F2B622B831603134D
:1026C2008C1583124008FF007F08DC00080083128B
:1026D2000313B100F701F6019E2B2030FF007F08A3
:1026E200AA00AB0100300A168A11EA260A168A11DC
:1026F200B42B1030FF007F08AA00AB0100300A168D
:102702008A11EA260A168A11B42B0830FF007F08C4
:10271200AA00AB0100300A168A11EA260A168A11AB
:10272200B42B0430FF007F08AA00AB0100300A1668
:102732008A11EA260A168A11B42B3108AF00B001B9
:102742003008003A0319A62BB42B2F08003A0319BC
:102752006E2B013A03197A2B033A0319862B013A9D
:102762000319922BB42BFF30FF007F08831203134F
:10277200AA00AB0103300A168A11EA260A168A1148
:10278200080083120313AF01AD1FC82BC92BD02B36
:10279200AC09AD09AC0A0319AD0AAF01AF0AAB1F10
:1027A200D32BD42BD92BAA09AB09AA0A0319AB0A3A
:1027B2002A082B040319DE2BDF2B0E2CAE01AE0AE6
:1027C200ED2B01300310AA0DAB0DFF3E031DE32BD1
:1027D2000130FF007F08AE07AB1FF02BF12BE22B7D
:1027E2002B082D02031DF72B2A082C02031CFA2B9F
:1027F200FB2B012C2A08AC022B08031CAD03AD02F3
:1028020001300310AB0CAA0CFF3E031D022C013059
:10281200AE02031D0D2C0E2CF12B2F080319122CC6
:10282200132C182CAC09AD09AC0A0319AD0A2D08FA
:10283200AB002C08AA00080083120313B100DD01CB
:10284200682CAA01AA0AFF30FF007F08AB00013002
:102852000A168A11EA260A168A1183160317BB0181
:102862007E2C0230FF007F08AA00FF30FF007F08A5
:10287200AB0001300A168A11EA260A168A1183165B
:102882000317C1017E2C0430FF007F08AA00FF302D
:10289200FF007F08AB0001300A168A11EA260A16E9
:1028A2008A1183160317C7017E2C0830FF007F08A8
:1028B200AA00FF30FF007F08AB0000300A168A1121
:1028C200EA260A168A1183160317CD017E2C3108D7
:1028D200AF00B0013008003A0319702C7E2C2F088B
:1028E200003A0319222C013A0319322C033A031934
:1028F200442C013A0319562C7E2C08008312031330
:10290200B100FF30FF007F08AA00AB0103300A16B6
:102912008A1118260A168A11CA2C2030FF007F0855
:10292200AA00AB0100300A168A1118260A168A116B
:1029320083160313A101E22C1030FF007F08AA00C6
:10294200AB0100300A168A1118260A168A1183165C
:102952000313A301E22C0830FF007F08AA00AB0199
:1029620000300A168A1118260A168A1183160313D2
:10297200A501E22C0430FF007F08AA00AB01003061
:102982000A168A1118260A168A1183160313A7013A
:10299200E22C831203133108AF00B0013008003A71
:1029A2000319D42CE22C2F08003A03198E2C013A79
:1029B20003199D2C033A0319AC2C013A0319BB2CC1
:1029C200E22C080083160313DB0083120313620850
:1029D200AA006308AB00AC01AD0100300A128A15EF
:1029E20076220A168A11831203132D08BF002C08BF
:1029F200BE002B08BD002A08BC004030BB009C3042
:102A0200BA002830B900F630B8000A128A117320D1
:102A12000A168A11831203133B08D9003A08D80018
:102A22003908D7003808D6004130D5002030D4000C
:102A32000030D3000030D2000A128A11D4230A16C1
:102A42008A1183120313550883160313DA008312C3
:102A52000313540883160313D90083120313530874
:102A620083160313D8008312031352088316031329
:102A7200D7000A128A1521210A168A118316031316
:102A82005708FF005B0884007F0883178000080056
:102A9200F4009C2D01307102003003197002031CF6
:102AA200532D542D552DAF2D83160313B601B60A9F
:102AB200FF30F20070087202F00071090318013E43
:102AC200F1007008831203138100DF30FF007F08DA
:102AD200831603138105AF2DF009F10970088312E3
:102AE20003138E0071088F0083160313B701B70A10
:102AF200831203131014AF2DFF30F200700872021C
:102B0200F00071090318013EF1000130710200303A
:102B120003197002031C8E2D8F2D902DAF2D70087E
:102B220083120313910083160313B801B80A8312A8
:102B320003131215AF2D7408F200F3017308003A63
:102B42000319A42DAF2D7208003A03194B2D013A37
:102B520003196D2D033A03197D2DAF2D08000030A6
:102B620083120313B6000030B5000030B400003009
:102B7200B3002D082C042B042A040319C12DC22DE5
:102B82000F2EB701B70AD22D0130B2000310AA0DE1
:102B9200AB0DAC0DAD0DB20BC72D0130FF007F08A0
:102BA200B707AD1FD52DD62DC52D0130B2000310AC
:102BB200B30DB40DB50DB60DB20BD82D2D083102E3
:102BC200031DED2D2C083002031DED2D2B082F02C5
:102BD200031DED2D2A082E02031CF02DF12D002ECF
:102BE2002A08AE022B08031C2B0FAF022C08031C71
:102BF2002C0FB0022D08031C2D0FB102331401302B
:102C02000310AD0CAC0CAB0CAA0CFF3E031D012E45
:102C12000130B702031D0E2E0F2ED62D3608AD0041
:102C22003508AC003408AB003308AA000800831250
:102C32000313AE00672E2B080319202E212E262EF9
:102C42002A08FF007F088504802E2A09FF007F08DA
:102C52008505802E2B0803192F2E302E352E2A089B
:102C6200FF007F088604802E2A09FF007F08860560
:102C7200802E2B0803193E2E3F2E442E2A08FF00D9
:102C82007F088704802E2A09FF007F088705802E8F
:102C92002B0803194D2E4E2E532E2A08FF007F08B3
:102CA2008804802E2A09FF007F088805802E2B08C1
:102CB20003195C2E5D2E622E2A08FF007F0889040C
:102CC200802E2A09FF007F088905802E2E08AC007D
:102CD200AD012D08003A03196F2E802E2C08003A00
:102CE20003191C2E013A03192B2E033A03193A2E0B
:102CF200013A0319492E073A0319582E802E08006B
:102D020083120313AF01AB1F872E882E8F2EAA09C1
:102D1200AB09AA0A0319AB0AAF01AF0AAD1F922E83
:102D2200932E9C2EAC09AD09AC0A0319AD0A0130F1
:102D3200FF007F08AF06B001B1012A082B04031976
:102D4200A32EA42EDB2EAE01AE0AB22E013003104A
:102D5200AA0DAB0DFF3E031DA82E0130FF007F0818
:102D6200AE07AB1FB52EB62EA72E01300310B00D45
:102D7200B10DFF3E031DB72E2B082D02031DC32EDE
:102D82002A082C02031CC62EC72ECE2E2A08AC02FD
:102D92002B08031CAD03AD02301401300310AB0C41
:102DA200AA0CFF3E031DCF2E0130AE02031DDA2E08
:102DB200DB2EB62E2F080319DF2EE02EE52EB009EA
:102DC200B109B00A0319B10A3108AB003008AA00F0
:102DD200080083120313AE004D2F2B080319F22EA5
:102DE200F32EFA2E2A08FF007F08831603138504A8
:102DF200662F2A09FF007F08831603138505662FB5
:102E02002B080319052F062F0D2F2A08FF007F0814
:102E1200831603138604662F2A09FF007F08831690
:102E220003138605662F2B080319182F192F202F3D
:102E32002A08FF007F08831603138704662F2A09D6
:102E4200FF007F08831603138705662F2B080319DB
:102E52002B2F2C2F332F2A08FF007F0883160313F2
:102E62008804662F2A09FF007F088316031388054A
:102E7200662F2B0803193E2F3F2F462F2A08FF00EB
:102E82007F08831603138904662F2A09FF007F082F
:102E9200831603138905662F2E08AC00AD012D0899
:102EA200003A0319552F662F2C08003A0319EE2E0B
:102EB200013A0319012F033A0319142F013A031996
:102EC200272F073A03193A2F662F0800831203139C
:102ED200B0001F14F030FF007F08831603139F0514
:102EE2000F30FF007F0883120313B0053008FF0084
:102EF2007F08831603139F047F30FF007F089F051E
:102F02008030FF007F0883120313AA052A08FF00FE
:102F12007F08831603139F04831203132B08FF00F9
:102F22007F08E1007F30FF007F089F05BF30FF0070
:102F32007F089F05BF30FF007F08831603139F059C
:102F4200E12F7F30FF007F089F05BF30FF007F0821
:102F52009F05BF30FF007F08831603139F05FF2FD5
:102F62007F30FF007F089F05BF30FF007F089F056D
:102F7200831603131F17FF2F7F30FF007F089F0563
:102F82001F17BF30FF007F08831603139F05FF2F13
:102F92007F30FF007F089F051F17B92F9F17BF3093
:102FA200FF007F089F05BF30FF007F0883160313D1
:102FB2009F05FF2F9F17BF30FF007F089F05B92F86
:102FC200831203132C08AE00AF012F08003A031935
:102FD200EB2FFF2F2E08003A0319A22F013A0319F3
:102FE200BD2F033A0319CF2F063A0319B12F013A25
:0E2FF2000319C92F033A0319DB2FFF2F080024
:1035BA00193410340A168A15EF240A168A150800D7
:1035CA0083160313111BEA2AEB2AE52A0800F000E6
:1035DA007008FF007F0883120313E40008008312B7
:1035EA000313AA002A08FF007F08E4000800640009
:1035FA008001840A0406031900340406FD2A1430E3
:10360A00831203136406031D0B2B0C2B0D2B630073
:10361A000800831603131419132B142B0E2B1108ED
:10362A001F39031D192B1A2B0E2B080010300A16EE
:10363A008A15B0230A168A1562300A168A150427D3
:10364A000A168A1508000A128A15C5210A168A1549
:10365A000A168A15C0250A168A150A128A1112280C
:10366A0083120313AC002A08FF002C08AB002B07B7
:10367A00A13E84007F088313800008000430FF0005
:10368A007F0883120313AA00AB0102300A168A11BB
:10369A00EA260A168A1508002030FF007F088312DE
:1036AA000313AA00AB0102300A168A11EA260A1687
:1036BA008A15080000300A168A117F240A168A150C
:1036CA0001300A168A117F240A168A1583120313F7
:1036DA00DF010800831203135C03031D752B762B8D
:1036EA007B2B0A168A150E230A168A1583160313CC
:1036FA0011140800831203135C03031D852B862B08
:10370A008B2B0A168A150E230A168A15831603139B
:10371A0011150800831203135C03031D952B962BC6
:10372A009B2B0A168A150E230A168A15831603136B
:10373A00911508008830F0001330F10001300A16A4
:10374A008A11C5210A168A150F30FF007F088312D5
:10375A000313E500080083120313AA003830FF00A0
:10376A007F08AA05C730FF007F089F052A08FF00C7
:10377A007F089F041F150800003083120313BB0043
:10378A000130BA008630B900A030B80001300A16FC
:10379A008A1111230A168A15080083120313AA0034
:1037AA005C03031DD92BDA2BDF2B0A168A150E238D
:1037BA000A168A15831203132A0893000800831233
:1037CA000313AF000430FF007F08AA002F08FF0090
:1037DA007F08AB0002300A168A1118260A168A15C3
:1037EA00080083120313AF002030FF007F08AA00ED
:1037FA002F08FF007F08AB0002300A168A1118262C
:10380A000A168A1508007E088A007F0882000A16AE
:10381A008A1508240A168A158000840A04087D0677
:10382A0003190034FF0A0319FE0A0C2C3F3406342C
:10383A005B344F3466346D347D3407347F346F34EF
:10384A0001340034013406340134003402340434BF
:10385A00023400300A168A1168230A168A150130C2
:10386A000A168A1168230A168A1583160313C001D9
:10387A00C10183120313DE01DF01E0010800831294
:10388A000313AC00AB012C1C4B2C4C2C502C2A08DB
:10389A00FF007F08AB070310AA0D0310AC0C2C081D
:1038AA00031D582C592C482C2B080800831203138B
:1038BA00AA005C03031D622C632C682C0A168A1565
:1038CA000E230A168A15831203131308FF002A0807
:1038DA0084007F0883138000080083120313AC005E
:1038EA007A2C0B168A2C8B158A2C2C08AA00AB0171
:1038FA002B08003A0319822C8A2C2A08003A031949
:10390A00762C013A0319782C8A2C08000B307B0696
:10391A00031D902C912CA62C0A30FF007F08FB0077
:10392A008830F0001330F10001300A168A11492557
:10393A000A168A1519300A168A15EC220A168A15E9
:10394A00AA2C0B30FF007F08FB0008008312031328
:10395A00AA005C03031DB22CB32CB82C0A168A15D4
:10396A000E230A168A15831203132A03031DBE2C7B
:10397A00BF2CC62CDF30FF007F0883160313910586
:10398A00C92C831603139116111608008312031308
:10399A00AC000A168A156F230A168A15A0300A1671
:1039AA008A15D2230A168A15831203132C080A16BB
:1039BA008A15D2230A168A15831203132B080A16AC
:1039CA008A15D2230A168A150A168A157F230A1619
:1039DA008A1508008030FF007F0883120313AA00AB
:1039EA00AB010230FF007F08AC00AD0100300A16BF
:1039FA008A1167270A168A150430FF007F08831286
:103A0A000313AA00FF30FF007F08AB0000300A163C
:103A1A008A1118260A168A1583120313E201E30192
:103A2A000800F100F301700803191C2D1D2D3D2D0E
:103A3A00F201F20A262D0310F00D0130FF007F0873
:103A4A00F207F01F292D2A2D202D0310F30D7008DF
:103A5A007102031C312D322D352D7008F1027314B9
:103A6A000310F00C0130F202031D3C2D3D2D2A2DCE
:103A7A007308080083120313B200AE01AF012A08CB
:103A8A00AC00AD012C08B0002D08B100321C4E2D3F
:103A9A004F2D552D3008AE070318AF0A3108AF076E
:103AAA0001300310B00DB10DFF3E031D562D03105A
:103ABA00B20C3208031D622D632D4B2D2F08AB006B
:103ACA002E08AA00080083120313AB00AD012A08CE
:103ADA000319702D712D912DAC01AC0A7A2D0310AA
:103AEA00AA0D0130FF007F08AC07AA1F7D2D7E2D8D
:103AFA00742D0310AD0D2A082B02031C852D862D6B
:103B0A00892D2A08AB022D140310AA0C0130AC022D
:103B1A00031D902D912D7E2D2D080800831203136D
:103B2A00AD00A62D2A088500BF2D2A088600BF2DC4
:103B3A002A088700BF2D2A088800BF2D2A08890075
:103B4A00BF2D2D08AB00AC012C08003A0319AE2D8D
:103B5A00BF2D2B08003A0319972D013A03199A2D04
:103B6A00033A03199D2D013A0319A02D073A0319A7
:103B7A00A32DBF2D08000F30831203136506031D02
:103B8A00C72DC82DC02D0A128A1530250A168A1586
:103B9A000A128A1169260A168A150A168A15EE2544
:103BAA000A168A150A128A1532230A168A150A1261
:103BBA008A152A240A168A151030FF007F088312F4
:103BCA000313E5000A168A1504230A168A15C02D5E
:103BDA0008001430FF007F0883160313C2076430FD
:103BEA0042060319F92DFA2DFB2D232EC2010A16BE
:103BFA008A151B230A168A15DE300A168A11E3244F
:103C0A000A168A1583160317DF015F08D13E84005E
:103C1A0083170008FF005F08D03E84007F088000F9
:103C2A000130FF007F08DF0709305F02031C1E2EE8
:103C3A001F2E0A2E5E08FF007F08D9000800831293
:103C4A000313AD00412E2A08FF007F0885065A2E6D
:103C5A002A08FF007F0886065A2E2A08FF007F08D6
:103C6A0087065A2E2A08FF007F0888065A2E2A0835
:103C7A00FF007F0889065A2E2D08AB00AC012C08DC
:103C8A00003A0319492E5A2E2B08003A0319282EF6
:103C9A00013A03192D2E033A0319322E013A031958
:103CAA00372E073A03193C2E5A2E080083120313A3
:103CBA00B300B401B501B6013608D03E84008317BB
:103CCA000008B100B2013108B4070318B50A320876
:103CDA00B5070130FF007F08B6070A303602031C19
:103CEA00772E782E612E0A30AA000030AB003508F4
:103CFA00AD003408AC000A168A15BA270A168A15C6
:103D0A00831203132B08B5002A08B4003408FF00F5
:103D1A00330884007F088000080083120313B5006B
:103D2A00B22E3208FF007F0883160313A000C82EA4
:103D3A003208FF007F0883160313A200C82E320838
:103D4A00FF007F0883160313A400C82E3208FF0061
:103D5A007F0883160313A600C82E3508B300B401E2
:103D6A003408003A0319BA2EC82E3308003A031948
:103D7A00962E013A03199D2E033A0319A42E013AED
:103D8A000319AB2EC82E0800143083160313BC0780
:103D9A000318BD0A0030BD0702307806031DD62E6F
:103DAA00D72EEB2EE8303C06033003193D06031DDF
:103DBA00DF2EE02EEB2E00300A168A110C200A168E
:103DCA008A1583160313BC01BD01032F7803031D53
:103DDA00EF2EF02EF72E00300A168A11BA220A1692
:103DEA008A15E62E7808031DFB2EFC2E032F0030C1
:103DFA000A168A11E4200A168A15E62E080083128A
:103E0A000313AC002E2F1F190B2F0C2F082F2C0871
:103E1A00840083138001840A8001831603131E0819
:103E2A0083120313AA00AB012C0884002A0880001D
:103E3A00840A2B0880001E08AA00AB012A08AB00DE
:103E4A00AA012C0884002A088004840A2B0880040A
:103E5A003E2F6108AA00AB012B08003A0319362F3E
:103E6A003E2F2A08003A0319082F083A03193E2F51
:103E7A003E2F080083120313AF002F08AE00013053
:103E8A000310AE0DFF3E031D452F03102E0DA93E54
:103E9A0084002A0883138000840A2B0880002C08D7
:103EAA00FF002F08AE0001300310AE0DFF3E031DC8
:103EBA00592F03102E0DAB3E84007F0880002D0879
:103ECA000319682F692F792F2D08FF002F08AE00DC
:103EDA0001300310AE0DFF3E031D6E2F03102E0D91
:103EEA00A83E84007F0880000800003400340134B2
:103EFA0000340234003404340034083400341034FA
:103F0A000034203400344034003480340034003427
:103F1A000134003400340034003410342034303496
:103F2A0000340034003400340034003401340234E4
:103F3A0003340434053406340734013401341034AC
:103F4A000134FF34FF340134023410340134FF34B5
:103F5A00FF340134043410340134FF34FF340034A4
:103F6A00083410340134FF34FF3483120313AF01D1
:103F7A00B0012A082B040319C32FC42FFB2FAE014B
:103F8A00AE0AD22F01300310AA0DAB0DFF3E031D5E
:103F9A00C82F0130FF007F08AE07AB1FD52FD62FE1
:103FAA00C72F01300310AF0DB00DFF3E031DD72FF1
:103FBA002B082D02031DE32F2A082C02031CE62FCF
:103FCA00E72FEE2F2A08AC022B08031CAD03AD0223
:103FDA002F1401300310AB0CAA0CFF3E031DEF2F68
:103FEA000130AE02031DFA2FFB2FD62F3008AB008B
:063FFA002F08AA000800D8
:02400E00BA3FB7
:00000001FF
